:0300000002093DB5
:0C093D00787FE4F6D8FD75817C02098407
:1009C9004669626572204C656E6774683A00504CDE
:1009D90045205345543A202744272041434B00538F
:1009E9004554204F4B20210053454C454354205238
:1009F900460052463A20312E3437370052463A20C3
:100A0900312E343731390052463A20312E343638B6
:100A1900300052463A20312E34363835005265734B
:100A290065743A20576169742E002D2D2D2D2D2DB9
:0C0A39002D005265736574204F4B2E0099
:100AFA0016220000000000000000000000000000B4
:100B0A000000000000000000084900800006000202
:0E0B1A000078C102C101C100017CB001580089
:10000E00759850758920758DFD758BFDD28ED2AC8D
:03001E00D2AF223C
:100B9E00C2AC120451FFAEF04E60108F993099FD29
:0E0BAE00C299740229F9E43AFA80E7D2AC2227
:100A4500EF642E4E70037F2E22EF64304E70037FCD
:100A55003022EF64314E70037F3122EF64324E70E5
:100A6500037F3222EF64334E70037F3322EF643409
:100A75004E70037F3422EF64354E70037F3522EFCD
:100A850064364E70037F3622EF64374E70037F372E
:100A950022EF64384E70037F3822EF64394E7003BD
:060AA5007F39227F3022A0
:1004DF0012000E120B297BFF7A0979C9E4FDFF1276
:1004EF000B557548B67547F37546AD75453FE4F541
:1004FF006BF56CF555F556F53BF53AF539F53830A2
:10050F00B5030205D5120B297BFF7A0979D7E4FDD4
:10051F00FF120B55E4F55D1208AD8F57E557644494
:10052F0060391208AD8F57E5576019644460157D27
:10053F0001AF5D120C07AF57120BF1746D255DF80B
:10054F00A657055DE557B444D3120B297BFF7A09F3
:10055F0079E87D01E4FF120B5580C1E56F24D0FDD2
:10056F00E434FFFCE41203367BCD7ACC79CC783DB2
:10057F0012011EC004C005C006C007E56D24D0FDE2
:10058F00E434FFFCE4120336D003D002D001D000D4
:10059F0012002DC004C005C006C007E57024D0FDB1
:1005AF00E434FFFCE41203367B0A7AD77923783CD4
:1005BF0012011ED003D002D001D00012002D8F3BAC
:1005CF008E3A8D398C3830B20302067C120B297BA0
:1005DF00FF7A0979F1E4FDFF120B55E56C640445D0
:1005EF006B7004F56BF56CE56C456B70187BFF7ADF
:1005FF000979FB7D01FF120B557548DF75474F7564
:10060F0046AD75453FE56C6401456B70187BFF7A0D
:10061F000A79057D01FF120B557548B67547F375BD
:10062F0046AD75453FE56C6402456B70187BFF7AEC
:10063F000A79107D01FF120B5575480475475675E1
:10064F0046AE75453FE56C6403456B70187BFF7ACA
:10065F000A791B7D01FF120B5575487B7547147581
:10066F0046AE75453F056CE56C7002056B20B345D2
:10067F00120B297BFF7A0A7926E4FDFF120B557BBB
:10068F00FF7A0A79337D01E4FF120B557F2C7E012F
:10069F00120BDB120B297BFF7A0A793BE4FDFF1269
:1006AF000B557F2C7E01120BDB7BFF7A0979C9E496
:1006BF00FDFF120B5530B40302050E120B297BFF01
:1006CF007A0979C9E4FDFF120B55754326E4F54409
:1006DF007D01FF120C077F4D120BF17B007A007921
:1006EF0049120B9EE4F579E57925E02422F8E6FE20
:1006FF0008E6FF120A45745E2579F8A6070579E525
:10070F0079C3940B40E1E56524D0FDE434FFFCE4AC
:10071F001203367BCD7ACC79CC783D12011EC00402
:10072F00C005C006C007E56224D0FFE434FFFE7C9D
:10073F00007D0A120409E56324D0FDEC34FFCD2FB0
:10074F00CD3EFCE4120336D003D002D001D000120C
:10075F00002DC004C005C006C007E56624D0FDE427
:10076F0034FFFCE41203367B0A7AD77923783C12E4
:10077F00011ED003D002D001D00012002D8F548E55
:10078F00538D528C51E4FFFEFDFCAB3BAA3AA939C5
:10079F00A8381202C46051AF48AE47AD46AC45AB66
:1007AF0054AA53A952A85112011E8F748E738D72C1
:1007BF008C71AB74AA73A972A871AF3BAE3AAD3905
:1007CF00AC381202278F418E408D3F8C3EAF48AE22
:1007DF0047AD46AC45AB41AA40A93FA83E12011E0A
:1007EF008F488E478D468C45E4F53BF53AF539F544
:1007FF0038AF48AE47AD46AC45AB54AA53A952A843
:10080F005112011E8F5C8E5B8D5A8C59E4FFFE7D59
:10081F00C87C42AB5CAA5BA95AA85912011E1203ED
:10082F006F8E7A8F7B7C037DE812041B7C007D0A20
:10083F0012041BED2430F575AE7AAF7B7C007D641E
:10084F0012041B7C007D0A12041BED2430F576AEDA
:10085F007AAF7B7C007D0A12041B7C007D0A120498
:10086F001BED2430F577AE7AAF7B7C007D0A120446
:10087F001BED2430F5787D017F02120C07AF751246
:10088F000BF1AF76120BF17F2E120BF1AF77120B2C
:0E089F00F1AF78120BF17F6D120BF102050E16
:03002300020AAB23
:100AAB00C0E0C0D075D000C000C004C005C007C2F4
:100ABB00AC309827C298AF99E54425E02422F8760C
:100ACB000008A6070544AD44ED3395E0FCD3ED9546
:100ADB00437480F86C984003754400309902C299B6
:0F0AEB00D2ACD007D005D004D000D0D0D0E032AC
:03000B00020B7D68
:040B7D00C0E0C0D044
:100B8100758A58758C9E0521E521B4140B752100D9
:080B9100053DE53D7002053C45
:050B9900D0D0D0E032D5
:040BD7007F057E0018
:100BDB00EF1FAA0670011E4A600BE4FDEDC3947D66
:050BEB0050EE0D80F743
:010BF00022E2
:0100030022DA
:030C3B00120BBCDD
:070C3E007F197E00020BDBB1
:100BBC00AC07120C3EC287C286D285AF041200036A
:0B0BCC008FA0C2857F0A7E00020BDBB9
:100C0700ED7004AB078004EF2440FBEB4480FF0248
:020C17000BBC14
:100BF100AC07120BD7D287C286120BD78CA0D28535
:060C0100120BD7C2852290
:100B55008B088A09890A120C07AB08AA09A90A1287
:100B650003F06013050AE50A7002050914F912037A
:080B7500F0FF120BF180E222F7
:100B29007F38120BBC7F38120BBC7F38120C3B7F0D
:100B390008120C3B7F01120BBC120C3E7F06120BF4
:0C0B4900BC120C3E7F0C120BBC020C3ED8
:100C2B003134372E323538303336392A414243444A
:100C1900AD071FED600B7E64EED3940040F21E8099
:010C2900F7D3
:010C2A0022A7
:1008AD00E590640F60057F05120C19E590640F60EB
:1008BD0079E590540F24F9601A24FC601124FE6030
:1008CD0008147012E4F509800D7509018008750989
:1008DD000280037509037590F07590F0E59054F062
:1008ED002490601B24C0601224E0600924F0701273
:1008FD00E4F508800D750801800875080280037500
:10090D00080375900FE590B40FFBE50825E025E091
:10091D00242BF582E4340CF583E5822509F582E478
:0F092D003583F583E493F50A8003E4F50AAF0AF6
:01093C002298
:100026000203DBE86480F8E933E83360110460F02A
:10003600ED33EC337009E8FCE9FDEAFEEBFF220440
:1000460060DED3EB9FEA9EE99DE8C2E78CF0C2F73B
:1000560095F0400CE8CCF8E9CDF9EACEFAEBCFFB07
:100066001203A685D0F05804700320D5B3E80470B7
:10007600075002B2D50203E592D5EC0460F7E4CC52
:10008600C0E0C398F8603B94186008400DD0E0FBD0
:100096000203BDE4FBFAC9FC8028E830E406E4C9A3
:1000A600FBE4CAFCE830E305E4C9CACBFCE8540724
:1000B6006010F8C3E913F9EA13FAEB13FBEC13FC2F
:1000C600D8F130F52FC3E49CFCEF9BFFEE9AFEEDD2
:1000D60099FDD0E0FBEF4E4D4C701222DB0302037C
:1000E600E2EC2CFCEF33FFEE33FEED33FDED30E7B3
:1000F600EB0203BDEF2BFFEE3AFEED39FDD0E0FB40
:1001060050130BBB00030203E5ED13FDEE13FEEFE8
:0801160013FFEC13FC0203BD12
:10011E00EC4D6011E8497017ED33EC3304600DE4DB
:10012E00FCFFFEFD22E933E8330470F80203DB1214
:10013E0003A658046009E4CC248150062850090215
:10014E0003E52840030203E2C0E0EB4A7044B980A5
:10015E0006D0E0FB0203D1EF4E701CBD8008EBFF12
:10016E00EAFEE9FD80EBE98DF0A4FEE5F002020760
:10017E00E9CDF9EAFEEBFFEF89F0A4FCE5F0CE89BC
:10018E00F0A42EFFE435F0CD89F0A42DFEE435F079
:10019E008067EF4E7005BD80D780C3EF8BF0A4ACA7
:1001AE00F0EE8BF0A42CFCE435F0F8EF8AF0A42CE2
:1001BE00E5F038FCE433CB8DF0A42CFCE5F03BF8F5
:1001CE00EE8AF0A42CFCE5F038F8E433CF89F0A4E5
:1001DE002CFCE5F038CF3400CE89F0A42FFFE5F0EB
:1001EE003EFEE433C98DF0A42EFEE5F039CD8AF043
:1001FE00A42FFFE5F03EFEE43DFD33D0E0FB5007BB
:10020E000BBB000F0203E5EC2CFCEF33FFEE33FECD
:06021E00ED33FD0203BDFB
:100224000203E5EC5D046005E8590470030203DB96
:100234001203A6580460F6EC4860F2EC7004FDFE6C
:10024400FF22C860DB2481C85009C39860025006AD
:100254000203E29850CAF582E9294B4A7005AB8241
:100264000203D175F0007C1A7880C3EF9BEE9AEDFF
:1002740099400DC3EF9BFFEE9AFEED99FDE842F025
:10028400DC23ACF0D0E0FFD0E0FED0E0FDAB822078
:10029400E7101BEB60BAEC2CFCEF33FFEE33FEED02
:1002A40033FD0203BDE803F830E705C0F075F00044
:1002B400EF2FFFEE33FEED33FD40B830E7C280AAE6
:1002C40074F8CC6480CCC86480C8F582046043C3ED
:1002D400EB9FF5F0EA9E42F0E99D42F0E89C45F080
:1002E40060305018E5825FFFE582F42B5582FB50A5
:1002F400210ABA001D09B90019088016E5825BFBC2
:10030400E582F42F5582FF50090EBE00050DBD0095
:10031400010CC3EB9FF5F0EA9E42F0E99D42F0E840
:0D0324009C45F06007CC4820E701B3EC22B7
:1003310075F020800E75F010800575F0087D007E47
:10034100007F003392D530D50312047CEC3340108A
:10035100EF33FFEE33FEED33FDEC33FCD5F0ED2250
:0E036100E5F0247EA2D513CC92E7CDCEFF228C
:10036F00EDD2E7CD33EC3392D524814006E4FFFE86
:10037F00FDFC22FCE4CFCECDCC24E0501174FF80E5
:10038F00EDC3CC13CCCD13CDCE13CECF13CF047082
:07039F00F030D5DE02047C02
:1003A600E9D2E7C933E833F892D5EDD2E7CD33EC9D
:0703B60033FC5002B2D52216
:1003BD00EC30E7100FBF000C0EBE00080DBD0004A1
:1003CD000BEB6014A2D5EB13FCED92E7FD2274FF4D
:1003DD00FCFDFEFF22E480F8A2D574FF13FC7D80A6
:0303ED00E480EFBA
:100949000204DFE493A3F8E493A34003F68001F2E1
:1009590008DFF48029E493A3F85407240CC8C333AF
:10096900C4540F4420C8834004F456800146F6DF7E
:10097900E4800B0102040810204080900AFAE47E0A
:10098900019360BCA3FF543F30E509541FFEE49373
:10099900A360010ECF54C025E060A840B8E493A33A
:1009A900FAE493A3F8E493A3C8C582C8CAC583CA65
:1009B900F0A3C8C582C8CAC583CADFE9DEE780BE1D
:010B280000CC
:1003F000BB010689828A83E0225002E722BBFE020B
:09040000E32289828A83E493223D
:10040900EF8DF0A4A8F0CF8CF0A428CE8DF0A42E07
:02041900FE22C1
:10041B00C2D5EC30E709B2D5E4C39DFDE49CFCEEFC
:10042B0030E715B2D5E4C39FFFE49EFE12048AC3E6
:10043B00E49DFDE49CFC800312048A30D507C3E4E1
:06044B009FFFE49EFE226B
:10045100BB010A89828A83E0F5F0A3E02250068776
:10046100F009E71922BBFE07E3F5F009E319228938
:0B047100828A83E493F5F0740193226B
:0E047C00C3E49FFFE49EFEE49DFDE49CFC2291
:10048A00BC000BBE0029EF8DF084FFADF022E4CC56
:10049A00F875F008EF2FFFEE33FEEC33FCEE9DEC1F
:1004AA00984005FCEE9DFE0FD5F0E9E4CEFD22ED65
:1004BA00F8F5F0EE8420D21CFEADF075F008EF2FAF
:1004CA00FFED33FD4007985006D5F0F222C398FDA0
:0504DA000FD5F0EA223D
:00000001FF
