:0300000002080FE4
:0C080F00787FE4F6D8FD7581740208566D
:10089B004669626572204C656E6774683A00504C0D
:1008AB0045205345543A202744272041434B0053BE
:1008BB004554204F4B20210053454C454354205267
:1008CB00460052463A20312E3437370052463A20F2
:1008DB00312E343731390052463A20312E343638E6
:1008EB00300052463A20312E34363835005265737B
:1008FB0065743A20576169742E002D2D2D2D2D2DE9
:0C090B002D005265736574204F4B2E00C8
:1009CC0016220000000000000000000000000000E3
:1009DC000000000000000000084500800006000236
:0E09EC000078C102C101C1000174B0015400C5
:10000E00759850758920758DFD758BFDD28ED2AC8D
:03001E00D2AF223C
:100A7000C2AC1206F1FFAEF04E60108F993099FDB6
:0E0A8000C299740229F9E43AFA80E7D2AC2256
:10091700EF642E4E70037F2E22EF64304E70037FFC
:100927003022EF64314E70037F3122EF64324E7014
:10093700037F3222EF64334E70037F3322EF643438
:100947004E70037F3422EF64354E70037F3522EFFC
:1009570064364E70037F3622EF64374E70037F375D
:1009670022EF64384E70037F3822EF64394E7003EC
:060977007F39227F3022CF
:1000260012000E1209FB7BFF7A08799BE4FDFF1292
:100036000A277544B67543F37542AD75413FE4F53D
:1000460067F568F551F55230B50302012D1209FB2B
:100056007BFF7A0879A9E4FDFF120A27E4F5591215
:10006600077F8F53E5536444603912077F8F53E54A
:10007600536019644460157D01AF59120AD9AF5314
:10008600120AC374692559F8A6530559E553B444B1
:10009600D31209FB7BFF7A0879BA7D01E4FF120AC5
:1000A6002780C1E56B24D0FDE434FFFCE41205D6BD
:1000B6007BCD7ACC79CC783D1204CBC004C005C088
:1000C60006C007E56924D0FDE434FFFCE41205D63A
:1000D600D003D002D001D0001203DAC004C005C09C
:1000E60006C007E56C24D0FDE434FFFCE41205D617
:1000F6007B0A7AD77923783C1204CBD003D002D07E
:1001060001D0001203DA8F3B8E3A8D398C38E4FF2A
:10011600FE7DC87C42AB3BAA3AA939A8381204CB6B
:1001260012060F8E518F5230B2030201D41209FB10
:100136007BFF7A0879C3E4FDFF120A27E5686404A9
:1001460045677004F567F568E568456770187BFFD5
:100156007A0879CD7D01FF120A277544DF75434F72
:100166007542AD75413FE5686401456770187BFFD0
:100176007A0879D77D01FF120A277544B67543F3CD
:100186007542AD75413FE5686402456770187BFFAF
:100196007A0879E27D01FF120A27754404754356F1
:1001A6007542AE75413FE5686403456770187BFF8D
:1001B6007A0879ED7D01FF120A2775447B75431491
:1001C6007542AE75413F0568E5687002056720B364
:1001D600451209FB7BFF7A0879F8E4FDFF120A272E
:1001E6007BFF7A0979057D01E4FF120A277F2C7EC1
:1001F60001120AAD1209FB7BFF7A09790DE4FDFFB6
:10020600120A277F2C7E01120AAD7BFF7A08799BA2
:10021600E4FDFF120A2730B40302004D1209FB7BEE
:10022600FF7A08799BE4FDFF120A27753F26E4F55D
:10023600407D01FF120AD97F4D120AC37B007A0066
:100246007945120A70E4F571E57125E02422F8E695
:10025600FE08E6FF120917745A2571F8A6070571FC
:10026600E571C3940B40E1E56124D0FDE434FFFC65
:10027600E41205D67BCD7ACC79CC783D1204CBC07E
:1002860004C005C006C007E55E24D0FFE434FFFEC7
:100296007C007D0A1206A9E55F24D0FDEC34FFCD73
:1002A6002FCD3EFCE41205D6D003D002D001D000FB
:1002B6001203DAC004C005C006C007E56224D0FDFB
:1002C600E434FFFCE41205D67B0A7AD77923783C1E
:1002D6001204CBD003D002D001D0001203DA8F5023
:1002E6008E4F8D4E8C4DE55245516034E4FFFE7DB8
:1002F600C87C42AB50AA4FA94EA84D1204CB120699
:100306000F8E658F66AC65AD66AE51AF521206BBF9
:10031600AC06AD07EC1205D68F448E438D428C4158
:10032600AF44AE43AD42AC41AB50AA4FA94EA84D27
:100336001204CB8F588E578D568C55E4FFFE7DC820
:100346007C42AB58AA57A956A8551204CB12060FE1
:100356008E728F737C037DE81206BB7C007D0A12C9
:1003660006BBED2430F56DAE72AF737C007D641272
:1003760006BB7C007D0A1206BBED2430F56EAE721C
:10038600AF737C007D0A1206BB7C007D0A1206BB99
:10039600ED2430F56FAE72AF737C007D0A1206BB9A
:1003A600ED2430F5707D017F02120AD9AF6D120A75
:1003B600C3AF6E120AC37F2E120AC3AF6F120AC3EF
:0D03C600AF70120AC37F6D120AC302004D12
:0300230002097D52
:10097D00C0E0C0D075D000C000C004C005C007C223
:10098D00AC309827C298AF99E54025E02422F8763F
:10099D000008A6070540AD40ED3395E0FCD3ED957D
:1009AD003F7480F86C984003754000309902C299ED
:0F09BD00D2ACD007D005D004D000D0D0D0E032DB
:03000B00020A4F97
:040A4F00C0E0C0D073
:100A5300758A58758C9E0521E521B4140B75210008
:080A6300053DE53D7002053C74
:050A6B00D0D0D0E03204
:040AA9007F057E0047
:100AAD00EF1FAA0670011E4A600BE4FDEDC3947D95
:050ABD0050EE0D80F772
:010AC2002211
:0100030022DA
:030B0D00120A8E3B
:070B10007F197E00020AAD0F
:100A8E00AC07120B10C287C286D285AF04120003C8
:0B0A9E008FA0C2857F0A7E00020AAD17
:100AD900ED7004AB078004EF2440FBEB4480FF0278
:020AE9000A8E73
:100AC300AC07120AA9D287C286120AA98CA0D285C2
:060AD300120AA9C28522EF
:100A27008B088A09890A120AD9AB08AA09A90A12E6
:100A370006906013050AE50A7002050914F9120603
:080A470090FF120AC380E222B5
:1009FB007F38120A8E7F38120A8E7F38120B0D7FCA
:100A0B0008120B0D7F01120A8E120B107F06120AB1
:0C0A1B008E120B107F0C120A8E020B10C2
:100AFD003134372E323538303336392A414243447A
:100AEB00AD071FED600B7E64EED3940040F21E80C9
:010AFB00F703
:010AFC0022D7
:10077F00E590640F60057F05120AEBE590640F604A
:10078F0079E590540F24F9601A24FC601124FE605F
:10079F0008147012E4F509800D75090180087509B8
:1007AF000280037509037590F07590F0E59054F091
:1007BF002490601B24C0601224E0600924F07012A2
:1007CF00E4F508800D75080180087508028003752F
:1007DF00080375900FE590B40FFBE50825E025E0C1
:1007EF0024FDF582E4340AF583E5822509F582E4D8
:0F07FF003583F583E493F50A8003E4F50AAF0A26
:01080E0022C7
:1003D30002067BE86480F8E933E83360110460F0D7
:1003E300ED33EC337009E8FCE9FDEAFEEBFF220490
:1003F30060DED3EB9FEA9EE99DE8C2E78CF0C2F78B
:1004030095F0400CE8CCF8E9CDF9EACEFAEBCFFB56
:1004130012064685D0F05804700320D5B3E8047063
:10042300075002B2D502068592D5EC0460F7E4CCFE
:10043300C0E0C398F8603B94186008400DD0E0FB1F
:1004430002065DE4FBFAC9FC8028E830E406E4C94F
:10045300FBE4CAFCE830E305E4C9CACBFCE8540773
:100463006010F8C3E913F9EA13FAEB13FBEC13FC7E
:10047300D8F130F52FC3E49CFCEF9BFFEE9AFEED21
:1004830099FDD0E0FBEF4E4D4C701222DB030206C8
:1004930082EC2CFCEF33FFEE33FEED33FDED30E762
:1004A300EB02065DEF2BFFEE3AFEED39FDD0E0FBEC
:1004B30050130BBB0003020685ED13FDEE13FEEF95
:0804C30013FFEC13FC02065DBF
:1004CB00EC4D6011E8497017ED33EC3304600DE42B
:1004DB00FCFFFEFD22E933E8330470F802067B12C1
:1004EB00064658046009E4CC2481500628500902C2
:1004FB000685284003020682C0E0EB4A7044B980AF
:10050B0006D0E0FB020671EF4E701CBD8008EBFFBE
:10051B00EAFEE9FD80EBE98DF0A4FEE5F00205B4FF
:10052B00E9CDF9EAFEEBFFEF89F0A4FCE5F0CE890B
:10053B00F0A42EFFE435F0CD89F0A42DFEE435F0C8
:10054B008067EF4E7005BD80D780C3EF8BF0A4ACF6
:10055B00F0EE8BF0A42CFCE435F0F8EF8AF0A42C31
:10056B00E5F038FCE433CB8DF0A42CFCE5F03BF844
:10057B00EE8AF0A42CFCE5F038F8E433CF89F0A434
:10058B002CFCE5F038CF3400CE89F0A42FFFE5F03A
:10059B003EFEE433C98DF0A42EFEE5F039CD8AF092
:1005AB00A42FFFE5F03EFEE43DFD33D0E0FB50070A
:1005BB000BBB000F020685EC2CFCEF33FFEE33FE7A
:0605CB00ED33FD02065DA8
:1005D10075F020800E75F010800575F0087D007EA5
:1005E100007F003392D530D50312071CEC33401045
:1005F100EF33FFEE33FEED33FDEC33FCD5F0ED22AE
:0E060100E5F0247EA2D513CC92E7CDCEFF22E9
:10060F00EDD2E7CD33EC3392D524814006E4FFFEE3
:10061F00FDFC22FCE4CFCECDCC24E0501174FF8042
:10062F00EDC3CC13CCCD13CDCE13CECF13CF0470DF
:07063F00F030D5DE02071CBC
:10064600E9D2E7C933E833F892D5EDD2E7CD33ECFA
:0706560033FC5002B2D52273
:10065D00EC30E7100FBF000C0EBE00080DBD0004FE
:10066D000BEB6014A2D5EB13FCED92E7FD2274FFAA
:10067D00FCFDFEFF22E480F8A2D574FF13FC7D8003
:03068D00E480EF17
:10081B00020026E493A3F8E493A34003F68001F2CD
:10082B0008DFF48029E493A3F85407240CC8C333DE
:10083B00C4540F4420C8834004F456800146F6DFAD
:10084B00E4800B01020408102040809009CCE47E68
:10085B00019360BCA3FF543F30E509541FFEE493A2
:10086B00A360010ECF54C025E060A840B8E493A369
:10087B00FAE493A3F8E493A3C8C582C8CAC583CA94
:10088B00F0A3C8C582C8CAC583CADFE9DEE780BE4C
:0109FA0000FC
:10069000BB010689828A83E0225002E722BBFE0268
:0906A000E32289828A83E493229B
:1006A900EF8DF0A4A8F0CF8CF0A428CE8DF0A42E65
:0206B900FE221F
:1006BB00C2D5EC30E709B2D5E4C39DFDE49CFCEE5A
:1006CB0030E715B2D5E4C39FFFE49EFE12072AC3A1
:1006DB00E49DFDE49CFC800312072A30D507C3E49C
:0606EB009FFFE49EFE22C9
:1006F100BB010A89828A83E0F5F0A3E022500687D4
:10070100F009E71922BBFE07E3F5F009E319228995
:0B071100828A83E493F5F074019322C8
:0E071C00C3E49FFFE49EFEE49DFDE49CFC22EE
:10072A00BC000BBE0029EF8DF084FFADF022E4CCB3
:10073A00F875F008EF2FFFEE33FEEC33FCEE9DEC7C
:10074A00984005FCEE9DFE0FD5F0E9E4CEFD22EDC2
:10075A00F8F5F0EE8420D21CFEADF075F008EF2F0C
:10076A00FFED33FD4007985006D5F0F222C398FDFD
:05077A000FD5F0EA229A
:00000001FF
